{
    "_format": "hh-sol-artifact-1",
    "contractName": "Healthrepo",
    "sourceName": "contracts/Healthrepo.sol",
    "abi": [
        {
            "inputs": [],
            "stateMutability": "nonpayable",
            "type": "constructor"
        },
        {
            "inputs": [],
            "name": "retriveData",
            "outputs": [
                {
                    "internalType": "string[]",
                    "name": "",
                    "type": "string[]"
                },
                {
                    "internalType": "string[]",
                    "name": "",
                    "type": "string[]"
                },
                {
                    "internalType": "string[]",
                    "name": "",
                    "type": "string[]"
                },
                {
                    "internalType": "string[]",
                    "name": "",
                    "type": "string[]"
                }
            ],
            "stateMutability": "view",
            "type": "function"
        },
        {
            "inputs": [],
            "name": "retriveDate",
            "outputs": [
                {
                    "internalType": "string[]",
                    "name": "",
                    "type": "string[]"
                }
            ],
            "stateMutability": "view",
            "type": "function"
        },
        {
            "inputs": [
                {
                    "internalType": "string",
                    "name": "_date",
                    "type": "string"
                },
                {
                    "internalType": "string",
                    "name": "_disease",
                    "type": "string"
                },
                {
                    "internalType": "string",
                    "name": "_prescription",
                    "type": "string"
                },
                {
                    "internalType": "string",
                    "name": "_medicine",
                    "type": "string"
                }
            ],
            "name": "store",
            "outputs": [
                {
                    "internalType": "string",
                    "name": "",
                    "type": "string"
                },
                {
                    "internalType": "string",
                    "name": "",
                    "type": "string"
                },
                {
                    "internalType": "string",
                    "name": "",
                    "type": "string"
                },
                {
                    "internalType": "string",
                    "name": "",
                    "type": "string"
                }
            ],
            "stateMutability": "nonpayable",
            "type": "function"
        }
    ],
    "bytecode": "0x60806040523480156200001157600080fd5b50336000806101000a81548173ffffffffffffffffffffffffffffffffffffffff021916908373ffffffffffffffffffffffffffffffffffffffff160217905550620000be6040518060400160405280601481526020017f636f6e7472616374206465706c6f79656420627900000000000000000000000081525060008054906101000a900473ffffffffffffffffffffffffffffffffffffffff16620000c460201b620006941760201c565b620002b0565b620001668282604051602401620000dd929190620001e5565b6040516020818303038152906040527f319af333000000000000000000000000000000000000000000000000000000007bffffffffffffffffffffffffffffffffffffffffffffffffffffffff19166020820180517bffffffffffffffffffffffffffffffffffffffffffffffffffffffff83818316178352505050506200016a60201b60201c565b5050565b60008151905060006a636f6e736f6c652e6c6f679050602083016000808483855afa5050505050565b6200019e8162000235565b82525050565b6000620001b18262000219565b620001bd818562000224565b9350620001cf81856020860162000269565b620001da816200029f565b840191505092915050565b60006040820190508181036000830152620002018185620001a4565b905062000212602083018462000193565b9392505050565b600081519050919050565b600082825260208201905092915050565b6000620002428262000249565b9050919050565b600073ffffffffffffffffffffffffffffffffffffffff82169050919050565b60005b83811015620002895780820151818401526020810190506200026c565b8381111562000299576000848401525b50505050565b6000601f19601f8301169050919050565b610ddd80620002c06000396000f3fe608060405234801561001057600080fd5b50600436106100415760003560e01c80630103c7aa1461004657806338278cda146100675780639008e1361461009a575b600080fd5b61004e6100b8565b60405161005e9493929190610ab9565b60405180910390f35b610081600480360381019061007c9190610864565b6104ae565b6040516100919493929190610b4a565b60405180910390f35b6100a26105bb565b6040516100af9190610a97565b60405180910390f35b60608060608060008054906101000a900473ffffffffffffffffffffffffffffffffffffffff1673ffffffffffffffffffffffffffffffffffffffff163373ffffffffffffffffffffffffffffffffffffffff161461014c576040517f08c379a000000000000000000000000000000000000000000000000000000000815260040161014390610bab565b60405180910390fd5b600160026003600483805480602002602001604051908101604052809291908181526020016000905b8282101561022157838290600052602060002001805461019490610d06565b80601f01602080910402602001604051908101604052809291908181526020018280546101c090610d06565b801561020d5780601f106101e25761010080835404028352916020019161020d565b820191906000526020600020905b8154815290600101906020018083116101f057829003601f168201915b505050505081526020019060010190610175565b50505050935082805480602002602001604051908101604052809291908181526020016000905b828210156102f457838290600052602060002001805461026790610d06565b80601f016020809104026020016040519081016040528092919081815260200182805461029390610d06565b80156102e05780601f106102b5576101008083540402835291602001916102e0565b820191906000526020600020905b8154815290600101906020018083116102c357829003601f168201915b505050505081526020019060010190610248565b50505050925081805480602002602001604051908101604052809291908181526020016000905b828210156103c757838290600052602060002001805461033a90610d06565b80601f016020809104026020016040519081016040528092919081815260200182805461036690610d06565b80156103b35780601f10610388576101008083540402835291602001916103b3565b820191906000526020600020905b81548152906001019060200180831161039657829003601f168201915b50505050508152602001906001019061031b565b50505050915080805480602002602001604051908101604052809291908181526020016000905b8282101561049a57838290600052602060002001805461040d90610d06565b80601f016020809104026020016040519081016040528092919081815260200182805461043990610d06565b80156104865780601f1061045b57610100808354040283529160200191610486565b820191906000526020600020905b81548152906001019060200180831161046957829003601f168201915b5050505050815260200190600101906103ee565b505050509050935093509350935090919293565b6060806060806001889080600181540180825580915050600190039060005260206000200160009091909190915090805190602001906104ef929190610759565b5060028790806001815401808255809150506001900390600052602060002001600090919091909150908051906020019061052b929190610759565b50600386908060018154018082558091505060019003906000526020600020016000909190919091509080519060200190610567929190610759565b506004859080600181540180825580915050600190039060005260206000200160009091909190915090805190602001906105a3929190610759565b50878787879350935093509350945094509450949050565b60606001805480602002602001604051908101604052809291908181526020016000905b8282101561068b5783829060005260206000200180546105fe90610d06565b80601f016020809104026020016040519081016040528092919081815260200182805461062a90610d06565b80156106775780601f1061064c57610100808354040283529160200191610677565b820191906000526020600020905b81548152906001019060200180831161065a57829003601f168201915b5050505050815260200190600101906105df565b50505050905090565b61072c82826040516024016106aa929190610b1a565b6040516020818303038152906040527f319af333000000000000000000000000000000000000000000000000000000007bffffffffffffffffffffffffffffffffffffffffffffffffffffffff19166020820180517bffffffffffffffffffffffffffffffffffffffffffffffffffffffff8381831617835250505050610730565b5050565b60008151905060006a636f6e736f6c652e6c6f679050602083016000808483855afa5050505050565b82805461076590610d06565b90600052602060002090601f01602090048101928261078757600085556107ce565b82601f106107a057805160ff19168380011785556107ce565b828001600101855582156107ce579182015b828111156107cd5782518255916020019190600101906107b2565b5b5090506107db91906107df565b5090565b5b808211156107f85760008160009055506001016107e0565b5090565b600061080f61080a84610bfc565b610bcb565b90508281526020810184848401111561082757600080fd5b610832848285610cc4565b509392505050565b600082601f83011261084b57600080fd5b813561085b8482602086016107fc565b91505092915050565b6000806000806080858703121561087a57600080fd5b600085013567ffffffffffffffff81111561089457600080fd5b6108a08782880161083a565b945050602085013567ffffffffffffffff8111156108bd57600080fd5b6108c98782880161083a565b935050604085013567ffffffffffffffff8111156108e657600080fd5b6108f28782880161083a565b925050606085013567ffffffffffffffff81111561090f57600080fd5b61091b8782880161083a565b91505092959194509250565b600061093383836109bf565b905092915050565b61094481610c92565b82525050565b600061095582610c3c565b61095f8185610c5f565b93508360208202850161097185610c2c565b8060005b858110156109ad578484038952815161098e8582610927565b945061099983610c52565b925060208a01995050600181019050610975565b50829750879550505050505092915050565b60006109ca82610c47565b6109d48185610c70565b93506109e4818560208601610cd3565b6109ed81610d96565b840191505092915050565b6000610a0382610c47565b610a0d8185610c81565b9350610a1d818560208601610cd3565b610a2681610d96565b840191505092915050565b6000610a3e602e83610c81565b91507f796f7520617265206e6f7420746865206f776e65722063616e7420676976652060008301527f796f7520746865206163636573730000000000000000000000000000000000006020830152604082019050919050565b60006020820190508181036000830152610ab1818461094a565b905092915050565b60006080820190508181036000830152610ad3818761094a565b90508181036020830152610ae7818661094a565b90508181036040830152610afb818561094a565b90508181036060830152610b0f818461094a565b905095945050505050565b60006040820190508181036000830152610b3481856109f8565b9050610b43602083018461093b565b9392505050565b60006080820190508181036000830152610b6481876109f8565b90508181036020830152610b7881866109f8565b90508181036040830152610b8c81856109f8565b90508181036060830152610ba081846109f8565b905095945050505050565b60006020820190508181036000830152610bc481610a31565b9050919050565b6000604051905081810181811067ffffffffffffffff82111715610bf257610bf1610d67565b5b8060405250919050565b600067ffffffffffffffff821115610c1757610c16610d67565b5b601f19601f8301169050602081019050919050565b6000819050602082019050919050565b600081519050919050565b600081519050919050565b6000602082019050919050565b600082825260208201905092915050565b600082825260208201905092915050565b600082825260208201905092915050565b6000610c9d82610ca4565b9050919050565b600073ffffffffffffffffffffffffffffffffffffffff82169050919050565b82818337600083830152505050565b60005b83811015610cf1578082015181840152602081019050610cd6565b83811115610d00576000848401525b50505050565b60006002820490506001821680610d1e57607f821691505b60208210811415610d3257610d31610d38565b5b50919050565b7f4e487b7100000000000000000000000000000000000000000000000000000000600052602260045260246000fd5b7f4e487b7100000000000000000000000000000000000000000000000000000000600052604160045260246000fd5b6000601f19601f830116905091905056fea2646970667358221220038d026e4675f9ecb6aed23d51e2422cb49555257567c294865a39837bc12f8564736f6c63430008000033",
    "linkReferences": {},
    "deployedLinkReferences": {}
}